S014000066696E616C70726F6A6563742E737265630F
S11300000C9434000C9451000C9451000C94510045
S11300100C9451000C9451000C9451000C94510018
S11300200C9451000C9451000C9451000C94510008
S11300300C9451000C9451000C9451000C945100F8
S11300400C9451000C9451000C9451000C945100E8
S11300500C9451000C9451000C9451000C945100D8
S11300600C9451000C94510011241FBECFEFD8E022
S1130070DEBFCDBF12E0A0E0B1E0E4E4F6E102C0EF
S113008005900D92A233B107D9F722E0A2E3B2E0C2
S113009001C01D92A934B207E1F70E946E050C94C9
S11300A0200B0C940000CF93C82F8A3019F482E7F8
S11300B00E9453008091C00085FFFCCFC093C6000E
S11300C080E090E0CF9108958091C0008823E4F708
S11300D08091C60090E008959BB19F779BB98823D7
S11300E01CF49BB190689BB99BB19F7B9BB986FF25
S11300F003C09BB190649BB99BB19F7D9BB985FF65
S113010003C09BB190629BB99BB19F7E9BB984FF56
S113011003C08BB180618BB988B1806188B985E0F7
S11301208A95F1F7000088B18F7E88B985E08A95B9
S1130130F1F700000895CF93C82F88B1806288B981
S113014088B18F7E88B98C2F0E946C008C2F829589
S1130150807F0E946C00CF9108950F931F93CF93DB
S1130160DF9300D0CDB7DEB78C011A82198212C09A
S1130170E981FA81E00FF11F80810E949B0089814F
S11301809A8101969A8389838FE391E00197F1F72D
S113019000C00000E981FA81E00FF11F8081811124
S11301A0E7CF0F900F90DF91CF911F910F9108959A
S11301B0CF93C82F88B18F7D88B988B18F7E88B9D5
S11301C08C2F0E946C008C2F8295807F0E946C0083
S11301D0CF9108952FEF81EE94E02150804090401C
S11301E0E1F700C0000088B18F7D88B988B18F7EA7
S11301F088B980E30E946C008FE39CE90197F1F7D2
S113020000C0000080E30E946C008FE193E001973E
S1130210F1F700C0000080E30E946C008FE193E0DE
S11302200197F1F700C0000088E20E946C008FE3A0
S113023091E00197F1F700C0000088E20E94D80025
S11302408FE391E00197F1F700C0000088E00E947D
S1130250D8008FE391E00197F1F700C0000081E03E
S11302600E94D8008FE79EE30197F1F700C00000D9
S113027086E00E94D8008FE391E00197F1F700C077
S113028000008CE00E94D8008FE391E00197F1F721
S113029000C0000008958AB180688AB98AB1806478
S11302A08AB98AB180628AB98AB180618AB987B110
S11302B0806187B987B1806287B90E94EA0087EBC1
S11302C091E00E94AD0008959F92AF92BF92CF92A9
S11302D0DF92EF92FF920F931F93CF93DF938C01E2
S11302E07C012FEFE21AF20A0F2EFBE3CF2ED12C62
S11302F0F02DAFC063E372E082E50E94950780931E
S11303003202813009F05BC083E392E00E94CA07A5
S113031080933202813009F052C012C0FE01ED5CBC
S1130320FD4F80811F928F9386EC91E09F938F9372
S11303300E943B0821960F900F900F900F9002C0DF
S1130340C0E0D0E0C830D1054CF380E090E00DC0AF
S1130350FC01E050FF4F3081FC01ED5CFD4F20813A
S1130360992493943213912C01968430910584F34B
S1130370992051F08CEC91E09F938F930E943B085D
S11303800F900F9080E069C088B1846088B94FEF06
S113039055EA8EE0415050408040E1F700C0000033
S11303A088B18B7F88B98BED91E09F938F930E94E6
S11303B03B088AE090E00E9451080F900F90C6011C
S11303C06AE070E00E9413085B0126EF2603E00157
S11303D0279FD00D1124CC0DDD1D802F80680E9435
S11303E0D8008FE391E00197F1F700C00000C50148
S11303F0880F991F880F991F880F991F8A199B09C5
S11304008E5E9E4F0E94AD008E2D80680E94D800A3
S11304108FE391E00197F1F700C00000CE01880F4F
S1130420991FCC0FDD1FCC0FDD1FCC0FDD1F8C0FF0
S11304309D1F8D5B9E4F0E94AD009FEF23ED40E317
S1130440915020404040E1F700C0000051E0C51A3F
S1130450D108DD200CF04ECF81E0DF91CF911F91C8
S11304600F91FF90EF90DF90CF90BF90AF909F904F
S11304700895EF92FF920F931F93CF93DF937C0124
S113048084EC0E94D8008FE391E00197F1F700C05B
S1130490000089EE91E00E94AD0091E0E91AF108B4
S11304A047C0C7016AE070E00E9413088B0126EF81
S11304B02603E001279FD00D1124CE0DDF1D82EC11
S11304C00E94D8008FE391E00197F1F700C000008B
S11304D0C801880F991F000F111F000F111F000F73
S11304E0111F800F911F8D5B9E4F0E94AD0083EC06
S11304F00E94D8008FE391E00197F1F700C000005B
S1130500CE01880F991FCC0FDD1FCC0FDD1FCC0F40
S1130510DD1F8C0F9D1F8D5B9E4F0E94AD0085E4F7
S113052090E00E946401811108C091E0E91AF10889
S1130530FF200CF0B6CF81E001C080E0DF91CF91C5
S11305401F910F91FF90EF9008959F92AF92BF92E9
S1130550CF92DF92EF92FF920F931F93CF93DF938B
S1130560EC016B01049714F0C3E0D0E02CE3C21655
S1130570D1042CF00F2EFBE3CF2ED12CF02DC6018D
S11305806AE070E00E9413085B0126EF2603700105
S1130590279FF00C1124EC0CFD1C80EC0E94D80069
S11305A08FE391E00197F1F700C00000CE01880FBE
S11305B0991F880F991F880F991F9E01220F331FBF
S11305C0820F931F8D5B9E4F0E94AD009FEFE3ED62
S11305D0F0E39150E040F040E1F700C0000081EC0E
S11305E00E94D8008FE391E00197F1F700C000006A
S11305F089EE91E00E94AD0082EC0E94D800EFE306
S1130600F1E03197F1F700C00000C501880F991F90
S1130610880F991F880F991F8A199B098E5E9E4F18
S11306200E94AD0083EC0E94D8008FE391E0019713
S1130630F1F700C00000C701880F991FEE0CFF1CE2
S1130640EE0CFF1CEE0CFF1C8E0D9F1D8D5B9E4F50
S11306500E94AD0084EC0E94D800EFE3F1E03197F2
S1130660F1F700C000008BEE91E00E94AD00FFEFB7
S113067023ED40E3F15020404040E1F700C000008A
S1130680C6010E943902882329F18BB184608BB999
S11306908BB1877F8BB988B1846088B95FEF85EAB5
S11306A09EE0515080409040E1F700C0000088B1C6
S11306B08B7F88B9EFEFFDE222E2E150F040204069
S11306C0E1F700C000008BB188608BB98BB18B7FE0
S11306D08BB9B3C1219720C080EC0E94D8008FE36E
S11306E091E00197F1F700C00000CE01880F991F37
S11306F0880F991F880F991F9E01220F331F820FA5
S1130700931F8D5B9E4F0E94AD008CE390E00E948E
S11307103902811192C12197DD23F4F68AB18068F0
S11307208AB98AB180648AB98AB180628AB98AB185
S113073080618AB987B1806187B987B1806287B9DE
S11307400E94EA008FEE91E00E94AD0080EC0E94CE
S1130750D8008EEF91E00E94AD00C4EFD1E088B1E3
S1130760846088B98BB188608BB98BB18B7F8BB96E
S1130770CE0107C0EFE9FFE03197F1F700C00000B8
S1130780019718161906B4F38BB184608BB98BB139
S1130790877F8BB988B18B7F88B9CE0107C0EFE919
S11307A0FFE03197F1F700C0000001971816190611
S11307B0B4F36497C436D10514F4C4E6D0E063E31B
S11307C072E082E50E94950780933202813039F607
S11307D083E392E00E94CA0780933202813009F0D9
S11307E0BECF13C0F801ED5CFD4F80811F928F9343
S11307F086EC91E09F938F930E943B080F5F1F4FFD
S11308000F900F900F900F9002C000E010E008309E
S1130810110544F380E090E00DC0FC01E050FF4F6F
S11308203081FC01ED5CFD4F2081992493943213B7
S1130830912C01968430910584F3992009F4F0C039
S11308408CEC91E09F938F930E943B0888B1846065
S113085088B9FFEF21EE44E0F15020404040E1F739
S113086000C0000088B18B7F88B95FEF8AED9AE100
S1130870515080409040E1F700C0000088B184608E
S113088088B9EFEFF1EE24E0E150F0402040E1F7C9
S113089000C0000088B18B7F88B94FEF57E883E12F
S11308A0415050408040E1F700C0000088B18460AE
S11308B088B99FEFE1EEF4E09150E040F040E1F7B9
S11308C000C0000088B18B7F88B92FEF43EC59E05A
S11308D0215040405040E1F700C0000088B18460DE
S11308E088B98FEF91EEE4E081509040E040E1F769
S11308F000C0000088B18B7F88B9FFEF29E648E18A
S1130900F15020404040E1F700C0000088B184600D
S113091088B95FEF81EE94E0515080409040E1F758
S113092000C0000088B18B7F88B9EFEFFFE627E1B4
S1130930E150F0402040E1F700C0000088B184603D
S113094088B94FEF51EE84E0415050408040E1F7C8
S113095000C0000088B18B7F88B99FEFEDE8F2E119
S11309609150E040F040E1F700C0000088B184609D
S113097088B92FEF41EE54E0215040405040E1F758
S113098000C0000088B18B7F88B98FEF92E5E7E063
S113099081509040E040E1F700C0000088B18460DD
S11309A088B9FFEF21EE44E0F15020404040E1F7E8
S11309B000C0000088B18B7F88B95FEF87E893E1BE
S11309C0515080409040E1F700C0000088B184603D
S11309D088B9EFEFF1EE24E0E150F0402040E1F778
S11309E000C0000088B18B7F88B94FEF5FEC87E0CF
S11309F0415050408040E1F700C0000088B184605D
S1130A0088B99FEFE1EEF4E09150E040F040E1F767
S1130A1000C0000088B18B7F88B90F900F900DC083
S1130A208BED91E09F938F930E943B088AE090E0C6
S1130A300E9451080F900F9092CEDF91CF911F9199
S1130A400F91FF90EF90DF90CF90BF90AF909F9069
S1130A5008952FEF85EA9EE0215080409040E1F711
S1130A6000C0000088B18B7F88B92FEF8DE292E23D
S1130A70215080409040E1F700C000008BB18860B5
S1130A808BB98BB18B7F8BB98AB180688AB98AB1F3
S1130A9080648AB98AB180628AB98AB180618AB96C
S1130AA087B1806187B987B1806287B90E94EA0003
S1130AB087EA91E00E94AD0080EC0E94D8008FE3A9
S1130AC091E00197F1F700C0000061E070E080E080
S1130AD090E00E94A50280E090E00895E3E4F2E053
S1130AE084E091E0918380839383828382E0809386
S1130AF0C0008FEC8093C40088E18093C1008AB168
S1130B0084608AB98AB188608AB987B1846087B9F8
S1130B1088E092E09F938F930E943B080E9406080E
S1130B200E9473068BB18B7F8BB98BB188608BB9B4
S1130B300F900F900E944B0163E372E082E50E94E4
S1130B40950780933202813009F09DC083E392E0DF
S1130B500E94CA0780933202813061F712C0FE01FD
S1130B60ED5CFD4F80811F928F9386EC91E09F9303
S1130B708F930E943B0821960F900F900F900F9037
S1130B8002C0C0E0D0E0C830D1054CF380E090E072
S1130B900CC0FC01E050FF4F3081FC01ED5CFD4FC7
S1130BA0208111E0321310E00196843091058CF31A
S1130BB0112361F18BB184608BB98BB1877F8BB9C1
S1130BC088B1846088B98AB180688AB98AB180643E
S1130BD08AB98AB180628AB98AB180618AB987B1D7
S1130BE0806187B987B1806287B90E94EA0084E195
S1130BF092E00E94AD008CEC91E09F938F930E9451
S1130C003B080E9429050F900F9038C08BED91E0AE
S1130C109F938F930E943B088AB180688AB98AB1F6
S1130C2080648AB98AB180628AB98AB180618AB9DA
S1130C3087B1806187B987B1806287B90E94EA0071
S1130C4083E292E00E94AD0088B1846088B92FEFFE
S1130C5085EA9EE0215080409040E1F700C000000A
S1130C6088B18B7F88B92FEF85EA9EE021508040C0
S1130C709040E1F700C000000F900F908AE090E0F0
S1130C800E94510857CF8BB188608BB98BB18B7F91
S1130C908BB950CFCF93C62F95B19B7F95B990E078
S1130CA0880F991F8E770E940D088C2F0E940D08C3
S1130CB085B1846085B9CF91089595B19B7F95B92D
S1130CC090E0880F991F8E7780680E940D0880E05D
S1130CD00E940D0895B1946095B908956FE081E084
S1130CE00E944A0608950E946E066DE88AE20E94F8
S1130CF04A066FE38BE20E944A066EE18CE20E9490
S1130D004A0660E08DE20E944A0660E485E10E94A2
S1130D104A066DE381E10E944A0684E10E945D0671
S1130D20982F937029F4682F636084E10E944A0627
S1130D3008954F925F926F927F928F929F92AF929B
S1130D40BF92CF92DF92EF92FF920F931F93CF93B4
S1130D50DF93D82F7B01C42F59018C3029F08E30BA
S1130D6061F0912C812C10C00F2EF0E39F2EF02DFA
S1130D700F2EF7E78F2EF02D07C06894992494F86E
S1130D800F2EF2E18F2EF02D84E00E945D06682F75
S1130D906F7784E00E944A068AE00E945D06682F0D
S1130DA060688AE00E944A0660E081E00E944A0688
S1130DB0412C512C32010CC0F701E40DF51D60816A
S1130DC089E00E944A068FEF481A580A680A780A8E
S1130DD08C2F90E0A0E0B0E0481659066A067B0626
S1130DE058F36D2F81E00E944A06DC3041F48DE017
S1130DF00E945D06682F60688DE00E944A06C12C3F
S1130E00D12C76016894D5F884E00E945D06C82F41
S1130E10E1E0CE1AD108E108F10829F080FD03C011
S1130E20892D8C2389F38DE00E945D06682F6F77EE
S1130E308DE00E944A06CD28CE28CF2809F460C050
S1130E4086E00E945D068B7109F05CC0C821C0FD7C
S1130E5002C0C1E001C0C2E0DC3009F054C08AE045
S1130E600E945D06D82F8CE00E945D06282F277013
S1130E70A9F08D2F90E00197880F991F880F991F73
S1130E80880F991F820F911D092E000CAA0BBB0B12
S1130E90F80180839183A283B38311C08D2F90E0E6
S1130EA0880F991F880F991F880F991F092E000C0E
S1130EB0AA0BBB0BF80180839183A283B383D11166
S1130EC001C0D1E0D13108F0D0E1C12CD12C7601A0
S1130ED00DC085010C0D1D1D89E00E945D06F80101
S1130EE08083FFEFCF1ADF0AEF0AFF0A8D2F90E00D
S1130EF0A0E0B0E0C816D906EA06FB0650F303C02A
S1130F00C3E001C0C3E08C2FDF91CF911F910F91FB
S1130F10FF90EF90DF90CF90BF90AF909F908F9015
S1130F207F906F905F904F900895EF92FF920F9390
S1130F301F93CF93DF9300D000D0CDB7DEB7182F27
S1130F407B0167E08DE00E944A06F70110838E0161
S1130F500F5F1F4F970141E0B7018CE00E94990693
S1130F60813051F449815A816B817C814031510532
S1130F706105710519F403C083E001C083E00F909B
S1130F800F900F900F90DF91CF911F910F91FF90D1
S1130F90EF900895EF92FF920F931F93CF93DF93F7
S1130FA000D000D0CDB7DEB77C0160E08DE00E94B8
S1130FB04A0683E9F701808380E281838E010F5F13
S1130FC01F4F970142E0B7018CE00E9499068130DF
S1130FD091F407C0F701E90FF11D308123279F5FCA
S1130FE002C020E090E09430A8F3F701E90FF11D6E
S1130FF09081291383E00F900F900F900F90DF9151
S1131000CF911F910F91FF90EF90089584B18C625E
S113101084B98CB581658CBD08958EBD0DB407FE71
S1131020FDCF8EB5089597FB072E16F4009407D0D4
S113103077FD09D00E94270807FC05D03EF490955F
S113104081959F4F0895709561957F4F0895AA1BD0
S1131050BB1B51E107C0AA1FBB1FA617B70710F09F
S1131060A61BB70B881F991F5A95A9F780959095D1
S1131070BC01CD010895A0E0B0E0E1E4F8E00C94F7
S1131080F90AAE014B5F5F4FFA0161917191AF01B3
S113109080914502909146020E945808E2E00C9427
S11310A0150B60914502709146020E944F0A089503
S11310B0ABE0B0E0EEE5F8E00C94E90A6C017B01EA
S11310C08A01FC0117821682838181FFCCC1CE0183
S11310D001963C01F6019381F70193FD859193FFFD
S11310E081917F01882309F4BAC1853239F493FDD3
S11310F0859193FF81917F01853229F4B60190E0B7
S11311000E944F0AE7CF912C212C312CFFE1F315DB
S1131110D8F08B3279F038F4803279F08332A1F44C
S1131120232D20611DC08D3261F0803369F4232D9D
S1131130216016C0832D8260382EE32DE4603E2E9C
S11311402AC0F32DF8601DC037FC2DC020ED280FF8
S11311502A3040F08E32B9F436FC81C1232D20644C
S1131160322E19C036FE06C08AE0989E200D112446
S1131170922E11C0EAE02E9E200D1124222EF32D72
S1131180F0623F2E08C08C3621F4832D8068382EFF
S113119002C0883641F4F70193FD859193FF819154
S11311A07F018111B3CF982F9F7D9554933028F4FC
S11311B00C5F1F4F9FE399830DC0833631F0833753
S11311C071F0833509F059C021C0F8018081898309
S11311D00E5F1F4F88248394912C530113C0280160
S11311E0F2E04F0E511CF801A080B18036FE03C01E
S11311F0692D70E002C06FEF7FEFC5010E94440AC1
S11312004C018201F32DFF773F2E16C0280122E006
S1131210420E511CF801A080B18036FE03C0692D36
S113122070E002C06FEF7FEFC5010E94390A4C01E4
S1131230F32DF0683F2E820133FC1BC0822D90E019
S113124088169906B0F4B60180E290E00E944F0A35
S11312502A94F4CFF50137FC859137FE81915F0123
S1131260B60190E00E944F0A21102A9421E0821ACC
S113127091088114910471F7E8C0843611F089361D
S113128041F5F80137FE07C0608171818281938145
S11312900C5F1F4F08C060817181072E000C880B02
S11312A0990B0E5F1F4FF32DFF763F2E97FF09C05A
S11312B090958095709561957F4F8F4F9F4FF06803
S11312C03F2E2AE030E0A3010E948B0A882E861864
S11312D045C0853731F4232D2F7EB22E2AE030E02D
S11312E025C0932D997FB92E8F36C1F018F4883517
S11312F079F0B5C0803719F0883721F0B0C0E92FF4
S1131300E061BE2EB4FE0DC0FB2DF460BF2E09C0FB
S113131034FE0AC0292F2660B22E06C028E030E031
S113132005C020E130E002C020E132E0F801B7FE60
S113133007C060817181828193810C5F1F4F06C059
S11313406081718180E090E00E5F1F4FA3010E94D5
S11313508B0A882E8618FB2DFF773F2E36FE0DC094
S1131360232D2E7FA22E891458F434FE0BC032FC98
S113137009C0832D8E7EA82E05C0B82CA32C03C0D3
S1131380B82C01C0B92CA4FE0FC0FE01E80DF11D5C
S11313908081803321F49A2D997EA92E09C0A2FE62
S11313A006C0B394B39404C08A2D867809F0B3942C
S11313B0A3FC11C0A0FE06C0B21488F4280C922C21
S11313C09B180EC0B21460F4B60180E290E00E9453
S11313D04F0AB394F7CFB21418F42B1802C0982C08
S11313E0212CA4FE10C0B60180E390E00E944F0AB5
S11313F0A2FE17C0A1FC03C088E790E002C088E504
S113140090E0B6010CC08A2D867859F0A1FE02C086
S11314108BE201C080E2A7FC8DE2B60190E00E945D
S11314204F0A891438F4B60180E390E00E944F0A11
S11314309A94F7CF8A94F301E80DF11D8081B601E7
S113144090E00E944F0A8110F5CF222009F442CE89
S1131450B60180E290E00E944F0A2A94F6CFF6018A
S11314608681978102C08FEF9FEF2B96E2E10C9467
S1131470050BFC010590615070400110D8F7809570
S113148090958E0F9F1F0895FC016150704001904C
S11314900110D8F7809590958E0F9F1F08950F9394
S11314A01F93CF93DF93FB01238121FD03C08FEFB3
S11314B09FEF2CC022FF16C04681578124813581BD
S11314C04217530744F4A081B1819D012F5F3F4F20
S11314D0318320838C93268137812F5F3F4F37835D
S11314E0268314C08B01EC01FB010084F185E02DFF
S11314F00995892BE1F6D80116968D919C91179741
S1131500019617969C938E931697CE01DF91CF91F7
S11315101F910F910895FA01AA27283051F1203123
S113152081F1E8946F936E7F6E5F7F4F8F4F9F4F73
S1131530AF4FB1E03ED0B4E03CD0670F781F891FB5
S11315409A1FA11D680F791F8A1F911DA11D6A0F83
S1131550711D811D911DA11D20D009F468943F9136
S11315602AE0269F11243019305D3193DEF6CF0135
S11315700895462F4770405D4193B3E00FD0C9F7FB
S1131580F6CF462F4F70405D4A3318F0495D31FD68
S11315904052419302D0A9F7EACFB4E0A6959795BB
S11315A0879577956795BA95C9F700976105710591
S11315B008959B01AC010A2E0694579547953795DB
S11315C02795BA95C9F7620F731F841F951FA01D35
S11315D008952F923F924F925F926F927F928F92D3
S11315E09F92AF92BF92CF92DF92EF92FF920F93AE
S11315F01F93CF93DF93CDB7DEB7CA1BDB0B0FB6B8
S1131600F894DEBF0FBECDBF09942A883988488874
S11316105F846E847D848C849B84AA84B984C8840A
S1131620DF80EE80FD800C811B81AA81B981CE0F01
S1131630D11D0FB6F894DEBF0FBECDBFED010895E6
S1071640F894FFCF48
S1131644DE7CC07E00000003000000005300640040
S11316540000300000000000003100000000000021
S113166432000000000000330000000000003400D9
S113167400000000003500000000000030000000FD
S113168400000030000000000000000000310000F1
S11316940000000000000032000000000000000010
S11316A400330000000000000000003400000000CB
S11316B400000000003500000000000000000036B7
S11316C400000000000000000037000000000000DB
S11316D40000003800000000000000000039000091
S11316E40000000000000054696D652052656D61BE
S11316F4696E696E673A00506C656173652053695D
S1131704676E20496E00253032782000416363659A
S11317147373204772616E74656400416363657317
S1131724732044656E696564003A003A30300054AD
S1131734494D4520455843454544454421005353A8
S113174443414E204944210068656C6C6F20776FD7
S1131754726C6400414343455353204752414E54F1
S11317644544004143434553532044454E4945446D
S105177400006F
S9030000FC
